{
  "contractName": "ERC20d",
  "abi": [
    {
      "inputs": [],
      "payable": false,
      "stateMutability": "nonpayable",
      "type": "constructor"
    },
    {
      "anonymous": false,
      "inputs": [
        {
          "indexed": true,
          "name": "owner",
          "type": "address"
        },
        {
          "indexed": true,
          "name": "spender",
          "type": "address"
        },
        {
          "indexed": false,
          "name": "value",
          "type": "uint256"
        }
      ],
      "name": "Approval",
      "type": "event"
    },
    {
      "anonymous": false,
      "inputs": [
        {
          "indexed": true,
          "name": "from",
          "type": "address"
        },
        {
          "indexed": true,
          "name": "to",
          "type": "address"
        },
        {
          "indexed": false,
          "name": "value",
          "type": "uint256"
        }
      ],
      "name": "Transfer",
      "type": "event"
    },
    {
      "anonymous": false,
      "inputs": [
        {
          "indexed": false,
          "name": "id",
          "type": "bytes32"
        },
        {
          "indexed": false,
          "name": "subject",
          "type": "bytes32"
        },
        {
          "indexed": false,
          "name": "choice",
          "type": "bytes32"
        },
        {
          "indexed": false,
          "name": "weight",
          "type": "uint256"
        }
      ],
      "name": "Vote",
      "type": "event"
    },
    {
      "anonymous": false,
      "inputs": [
        {
          "indexed": true,
          "name": "delegate",
          "type": "address"
        },
        {
          "indexed": false,
          "name": "id",
          "type": "bytes32"
        },
        {
          "indexed": false,
          "name": "block",
          "type": "uint256"
        }
      ],
      "name": "Neo",
      "type": "event"
    },
    {
      "anonymous": false,
      "inputs": [
        {
          "indexed": false,
          "name": "id",
          "type": "bytes32"
        },
        {
          "indexed": false,
          "name": "change",
          "type": "bytes32"
        }
      ],
      "name": "Trust",
      "type": "event"
    },
    {
      "anonymous": false,
      "inputs": [
        {
          "indexed": false,
          "name": "id",
          "type": "bytes32"
        },
        {
          "indexed": false,
          "name": "reward",
          "type": "uint256"
        }
      ],
      "name": "Reward",
      "type": "event"
    },
    {
      "anonymous": false,
      "inputs": [
        {
          "indexed": true,
          "name": "delegate",
          "type": "address"
        }
      ],
      "name": "Stake",
      "type": "event"
    },
    {
      "constant": false,
      "inputs": [],
      "name": "toggleStake",
      "outputs": [],
      "payable": false,
      "stateMutability": "nonpayable",
      "type": "function"
    },
    {
      "constant": false,
      "inputs": [
        {
          "name": "_identity",
          "type": "bytes32"
        }
      ],
      "name": "setIdentity",
      "outputs": [],
      "payable": false,
      "stateMutability": "nonpayable",
      "type": "function"
    },
    {
      "constant": true,
      "inputs": [],
      "name": "name",
      "outputs": [
        {
          "name": "",
          "type": "string"
        }
      ],
      "payable": false,
      "stateMutability": "view",
      "type": "function"
    },
    {
      "constant": true,
      "inputs": [],
      "name": "symbol",
      "outputs": [
        {
          "name": "",
          "type": "string"
        }
      ],
      "payable": false,
      "stateMutability": "view",
      "type": "function"
    },
    {
      "constant": true,
      "inputs": [],
      "name": "decimals",
      "outputs": [
        {
          "name": "",
          "type": "uint256"
        }
      ],
      "payable": false,
      "stateMutability": "view",
      "type": "function"
    },
    {
      "constant": true,
      "inputs": [],
      "name": "maxSupply",
      "outputs": [
        {
          "name": "",
          "type": "uint256"
        }
      ],
      "payable": false,
      "stateMutability": "view",
      "type": "function"
    },
    {
      "constant": true,
      "inputs": [],
      "name": "totalSupply",
      "outputs": [
        {
          "name": "",
          "type": "uint256"
        }
      ],
      "payable": false,
      "stateMutability": "view",
      "type": "function"
    },
    {
      "constant": true,
      "inputs": [
        {
          "name": "_id",
          "type": "bytes32"
        }
      ],
      "name": "isVoted",
      "outputs": [
        {
          "name": "",
          "type": "bool"
        }
      ],
      "payable": false,
      "stateMutability": "view",
      "type": "function"
    },
    {
      "constant": true,
      "inputs": [
        {
          "name": "_account",
          "type": "address"
        }
      ],
      "name": "isActive",
      "outputs": [
        {
          "name": "",
          "type": "bool"
        }
      ],
      "payable": false,
      "stateMutability": "view",
      "type": "function"
    },
    {
      "constant": true,
      "inputs": [
        {
          "name": "_account",
          "type": "address"
        }
      ],
      "name": "isStaking",
      "outputs": [
        {
          "name": "",
          "type": "bool"
        }
      ],
      "payable": false,
      "stateMutability": "view",
      "type": "function"
    },
    {
      "constant": true,
      "inputs": [
        {
          "name": "_owner",
          "type": "address"
        }
      ],
      "name": "balanceOf",
      "outputs": [
        {
          "name": "",
          "type": "uint256"
        }
      ],
      "payable": false,
      "stateMutability": "view",
      "type": "function"
    },
    {
      "constant": true,
      "inputs": [
        {
          "name": "_account",
          "type": "address"
        }
      ],
      "name": "validityId",
      "outputs": [
        {
          "name": "",
          "type": "bytes32"
        }
      ],
      "payable": false,
      "stateMutability": "view",
      "type": "function"
    },
    {
      "constant": true,
      "inputs": [
        {
          "name": "_id",
          "type": "bytes32"
        }
      ],
      "name": "getIdentity",
      "outputs": [
        {
          "name": "",
          "type": "bytes32"
        }
      ],
      "payable": false,
      "stateMutability": "view",
      "type": "function"
    },
    {
      "constant": true,
      "inputs": [
        {
          "name": "_id",
          "type": "bytes32"
        }
      ],
      "name": "getAddress",
      "outputs": [
        {
          "name": "",
          "type": "address"
        }
      ],
      "payable": false,
      "stateMutability": "view",
      "type": "function"
    },
    {
      "constant": true,
      "inputs": [
        {
          "name": "_id",
          "type": "bytes32"
        }
      ],
      "name": "viability",
      "outputs": [
        {
          "name": "",
          "type": "uint256"
        }
      ],
      "payable": false,
      "stateMutability": "view",
      "type": "function"
    },
    {
      "constant": true,
      "inputs": [
        {
          "name": "_id",
          "type": "bytes32"
        }
      ],
      "name": "totalEvents",
      "outputs": [
        {
          "name": "",
          "type": "uint256"
        }
      ],
      "payable": false,
      "stateMutability": "view",
      "type": "function"
    },
    {
      "constant": true,
      "inputs": [
        {
          "name": "_id",
          "type": "bytes32"
        }
      ],
      "name": "totalVotes",
      "outputs": [
        {
          "name": "",
          "type": "uint256"
        }
      ],
      "payable": false,
      "stateMutability": "view",
      "type": "function"
    },
    {
      "constant": true,
      "inputs": [
        {
          "name": "_id",
          "type": "bytes32"
        }
      ],
      "name": "positiveVotes",
      "outputs": [
        {
          "name": "",
          "type": "uint256"
        }
      ],
      "payable": false,
      "stateMutability": "view",
      "type": "function"
    },
    {
      "constant": true,
      "inputs": [
        {
          "name": "_id",
          "type": "bytes32"
        }
      ],
      "name": "negativeVotes",
      "outputs": [
        {
          "name": "",
          "type": "uint256"
        }
      ],
      "payable": false,
      "stateMutability": "view",
      "type": "function"
    },
    {
      "constant": true,
      "inputs": [
        {
          "name": "_id",
          "type": "bytes32"
        }
      ],
      "name": "neutralVotes",
      "outputs": [
        {
          "name": "",
          "type": "uint256"
        }
      ],
      "payable": false,
      "stateMutability": "view",
      "type": "function"
    },
    {
      "constant": true,
      "inputs": [
        {
          "name": "_owner",
          "type": "address"
        },
        {
          "name": "_spender",
          "type": "address"
        }
      ],
      "name": "allowance",
      "outputs": [
        {
          "name": "",
          "type": "uint256"
        }
      ],
      "payable": false,
      "stateMutability": "view",
      "type": "function"
    },
    {
      "constant": false,
      "inputs": [
        {
          "name": "_to",
          "type": "address"
        },
        {
          "name": "_value",
          "type": "uint256"
        }
      ],
      "name": "transfer",
      "outputs": [
        {
          "name": "",
          "type": "bool"
        }
      ],
      "payable": false,
      "stateMutability": "nonpayable",
      "type": "function"
    },
    {
      "constant": false,
      "inputs": [
        {
          "name": "_spender",
          "type": "address"
        },
        {
          "name": "_value",
          "type": "uint256"
        }
      ],
      "name": "approve",
      "outputs": [
        {
          "name": "",
          "type": "bool"
        }
      ],
      "payable": false,
      "stateMutability": "nonpayable",
      "type": "function"
    },
    {
      "constant": false,
      "inputs": [
        {
          "name": "_from",
          "type": "address"
        },
        {
          "name": "_to",
          "type": "address"
        },
        {
          "name": "_value",
          "type": "uint256"
        }
      ],
      "name": "transferFrom",
      "outputs": [
        {
          "name": "",
          "type": "bool"
        }
      ],
      "payable": false,
      "stateMutability": "nonpayable",
      "type": "function"
    },
    {
      "constant": false,
      "inputs": [
        {
          "name": "_spender",
          "type": "address"
        },
        {
          "name": "_addedValue",
          "type": "uint256"
        }
      ],
      "name": "increaseAllowance",
      "outputs": [
        {
          "name": "",
          "type": "bool"
        }
      ],
      "payable": false,
      "stateMutability": "nonpayable",
      "type": "function"
    },
    {
      "constant": false,
      "inputs": [
        {
          "name": "_spender",
          "type": "address"
        },
        {
          "name": "_subtractedValue",
          "type": "uint256"
        }
      ],
      "name": "decreaseAllowance",
      "outputs": [
        {
          "name": "",
          "type": "bool"
        }
      ],
      "payable": false,
      "stateMutability": "nonpayable",
      "type": "function"
    },
    {
      "constant": false,
      "inputs": [
        {
          "name": "_id",
          "type": "bytes32"
        },
        {
          "name": "_account",
          "type": "address"
        },
        {
          "name": "_reward",
          "type": "uint256"
        }
      ],
      "name": "validationReward",
      "outputs": [],
      "payable": false,
      "stateMutability": "nonpayable",
      "type": "function"
    },
    {
      "constant": false,
      "inputs": [
        {
          "name": "_id",
          "type": "bytes32"
        },
        {
          "name": "_subject",
          "type": "bytes32"
        },
        {
          "name": "_choice",
          "type": "bytes32"
        },
        {
          "name": "_weight",
          "type": "uint256"
        }
      ],
      "name": "validationEvent",
      "outputs": [],
      "payable": false,
      "stateMutability": "nonpayable",
      "type": "function"
    },
    {
      "constant": false,
      "inputs": [
        {
          "name": "_id",
          "type": "bytes32"
        }
      ],
      "name": "increaseViability",
      "outputs": [],
      "payable": false,
      "stateMutability": "nonpayable",
      "type": "function"
    },
    {
      "constant": false,
      "inputs": [
        {
          "name": "_id",
          "type": "bytes32"
        }
      ],
      "name": "decreaseViability",
      "outputs": [],
      "payable": false,
      "stateMutability": "nonpayable",
      "type": "function"
    },
    {
      "constant": false,
      "inputs": [],
      "name": "conformIdentity",
      "outputs": [],
      "payable": false,
      "stateMutability": "nonpayable",
      "type": "function"
    },
    {
      "constant": false,
      "inputs": [
        {
          "name": "_entity",
          "type": "address"
        }
      ],
      "name": "adminControl",
      "outputs": [],
      "payable": false,
      "stateMutability": "nonpayable",
      "type": "function"
    }
  ],
  "bytecode": "0x6080604052600480546001600160a01b031990811633179091556005805490911690553480156200002f57600080fd5b506000620000556012600a0a640ae5cb9f406200013660201b620012611790919060201c565b90506200007a6012600a0a640bc7feba006200013660201b620012611790919060201c565b6007556004546200009c906001600160a01b0316826200016a602090811b901c565b6040805180820190915260088082527f56616c69646974790000000000000000000000000000000000000000000000006020909201918252620000e29160099162000265565b506040805180820190915260048082527f564c44590000000000000000000000000000000000000000000000000000000060209092019182526200012991600a9162000265565b505060126008556200030a565b600082620001475750600062000164565b828202828482816200015557fe5b04146200016157600080fd5b90505b92915050565b60075462000189826006546200025260201b6200117d1790919060201c565b11156200019557600080fd5b6001600160a01b038216620001a957600080fd5b620001c5816006546200025260201b6200117d1790919060201c565b6006556001600160a01b038216600090815260016020908152604090912054620001fa9183906200117d62000252821b17901c565b6001600160a01b03831660008181526001602090815260408083209490945583518581529351929391927fddf252ad1be2c89b69c2b068fc378daa952ba7f163c4a11628f55a4df523b3ef9281900390910190a35050565b6000828201838110156200016157600080fd5b828054600181600116156101000203166002900490600052602060002090601f016020900481019282601f10620002a857805160ff1916838001178555620002d8565b82800160010185558215620002d8579182015b82811115620002d8578251825591602001919060010190620002bb565b50620002e6929150620002ea565b5090565b6200030791905b80821115620002e65760008155600101620002f1565b90565b6112b4806200031a6000396000f3fe608060405234801561001057600080fd5b50600436106101f05760003560e01c80636fef43301161010f578063a457c2d7116100a2578063cc7d4d5311610071578063cc7d4d5314610605578063d5abeb0114610622578063dd62ed3e1461062a578063f71b6a2514610658576101f0565b8063a457c2d714610573578063a78672121461059f578063a9059cbb146105bc578063b51b9127146105e8576101f0565b8063927103ac116100de578063927103ac146104f657806395d89b41146105135780639f8a13d71461051b578063a16f189e14610541576101f0565b80636fef43301461048e57806370a0823114610496578063778e96c0146104bc5780637d7e938a146104d9576101f0565b8063313ce56711610187578063562c281111610156578063562c2811146103f65780636292f05f1461041c57806367cdd1fb1461044b5780636f49712b14610468576101f0565b8063313ce5671461037f57806333bf35771461038757806339509351146103ad57806340e01b55146103d9576101f0565b8063198bfb55116101c3578063198bfb55146102e957806321f8a7211461030857806323b872dd146103415780632f43fbe314610377576101f0565b806306fdde03146101f5578063095ea7b3146102725780631163fd2d146102b257806318160ddd146102cf575b600080fd5b6101fd610675565b6040805160208082528351818301528351919283929083019185019080838360005b8381101561023757818101518382015260200161021f565b50505050905090810190601f1680156102645780820380516001836020036101000a031916815260200191505b509250505060405180910390f35b61029e6004803603604081101561028857600080fd5b506001600160a01b03813516906020013561070b565b604080519115158252519081900360200190f35b61029e600480360360208110156102c857600080fd5b5035610722565b6102d761073a565b60408051918252519081900360200190f35b610306600480360360208110156102ff57600080fd5b5035610740565b005b6103256004803603602081101561031e57600080fd5b5035610777565b604080516001600160a01b039092168252519081900360200190f35b61029e6004803603606081101561035757600080fd5b506001600160a01b03813581169160208101359091169060400135610792565b6103066107e4565b6102d761088b565b6103066004803603602081101561039d57600080fd5b50356001600160a01b0316610891565b61029e600480360360408110156103c357600080fd5b506001600160a01b0381351690602001356108ca565b6102d7600480360360208110156103ef57600080fd5b5035610904565b6102d76004803603602081101561040c57600080fd5b50356001600160a01b0316610919565b6103066004803603608081101561043257600080fd5b5080359060208101359060408101359060600135610934565b6103066004803603602081101561046157600080fd5b5035610adf565b61029e6004803603602081101561047e57600080fd5b50356001600160a01b0316610bae565b610306610bd4565b6102d7600480360360208110156104ac57600080fd5b50356001600160a01b0316610c5a565b6102d7600480360360208110156104d257600080fd5b5035610c75565b6102d7600480360360208110156104ef57600080fd5b5035610c8a565b6103066004803603602081101561050c57600080fd5b5035610c9f565b6101fd610d7a565b61029e6004803603602081101561053157600080fd5b50356001600160a01b0316610ddb565b6103066004803603606081101561055757600080fd5b508035906001600160a01b036020820135169060400135610dfc565b61029e6004803603604081101561058957600080fd5b506001600160a01b038135169060200135610ebd565b6102d7600480360360208110156105b557600080fd5b5035610ef7565b61029e600480360360408110156105d257600080fd5b506001600160a01b038135169060200135610f0c565b6102d7600480360360208110156105fe57600080fd5b5035610f19565b6102d76004803603602081101561061b57600080fd5b5035610f2e565b6102d7610f43565b6102d76004803603604081101561064057600080fd5b506001600160a01b0381358116916020013516610f49565b6102d76004803603602081101561066e57600080fd5b5035610f72565b60098054604080516020601f60026000196101006001881615020190951694909404938401819004810282018101909252828152606093909290918301828280156107015780601f106106d657610100808354040283529160200191610701565b820191906000526020600020905b8154815290600101906020018083116106e457829003601f168201915b5050505050905090565b6000610718338484610f87565b5060015b92915050565b60009081526002602052604090206009015460ff1690565b60065490565b61074933610ddb565b61075257600080fd5b806002600061076033610919565b815260208101919091526040016000206001015550565b6000908152600260205260409020546001600160a01b031690565b6001600160a01b0383166000908152602081815260408083203380855292528220546107cf9186916107ca908663ffffffff61100d16565b610f87565b6107da848484611022565b5060019392505050565b6107ed33610ddb565b156107f757600080fd5b60006108023361112b565b3360008181526003602081815260408084208681558685526002835281852080546001600160a01b03191687179055938590529181526001928301805460ff191690931790925580518481524392810192909252805193945091927f51cd4b8c0225e44e87a9ab75b09c0c28e9383414d405e32028c7d578c332f649929181900390910190a250565b60085490565b6004546001600160a01b031633146108a857600080fd5b600580546001600160a01b0319166001600160a01b0392909216919091179055565b336000818152602081815260408083206001600160a01b038716845290915281205490916107189185906107ca908663ffffffff61117d16565b60009081526002602052604090206003015490565b6001600160a01b031660009081526003602052604090205490565b6005546001600160a01b0316331461094b57600080fd5b600160c01b67506f736974697665028214806109735750600160ca1b6613995d5d1c985b0282145b8061098b5750600160c01b674e656761746976650282145b61099457600080fd5b6109a56109a085610777565b610bae565b6109ae57600080fd5b6109b784610722565b156109c157600080fd5b600084815260026020526040902060098101805460ff19166001179055600160c01b67506f73697469766502831415610a1757610a0d82610a0187610c75565b9063ffffffff61117d16565b6004820155610a6c565b600160ca1b6613995d5d1c985b02831415610a4357610a3982610a0187610f19565b6006820155610a6c565b600160c01b674e6567617469766502831415610a6c57610a6682610a0187610f72565b60058201555b610a7982610a0187610f2e565b6008820155610a8c6001610a0187610c8a565b600782015560408051868152602081018690528082018590526060810184905290517ff9a0f45f5b0ee4b0e0d35afcbb2331423679429ed104c6f80a230e870867439a9181900360800190a15050505050565b6005546001600160a01b03163314610af657600080fd5b600081815260026020819052604090912001548190431015610b1757600080fd5b610b29436103e863ffffffff61117d16565b60008381526002602081905260409091200155610b4a6001610a0184610904565b600083815260026020908152604091829020600301929092558051848152600160c01b67506f736974697665029281019290925280517fb2e24cfbc75d5fb0929555ddbfbfa6cdcb0012c0efe56ceba8062989cf7835ef9281900390910190a15050565b6001600160a01b0316600090815260036020526040902060010154610100900460ff1690565b610be5610be033610919565b610722565b15610bef57600080fd5b610bf833610ddb565b610c0157600080fd5b33600081815260036020526040808220600101805461ff001981166101009182900460ff1680159092021790915590519092917f8c000936ed6cc8b0c4218956860faac1c834b4ec96b46fa995aa58fc097fea1691a250565b6001600160a01b031660009081526001602052604090205490565b60009081526002602052604090206004015490565b60009081526002602052604090206007015490565b6005546001600160a01b03163314610cb657600080fd5b600081815260026020819052604090912001548190431015610cd757600080fd5b610ce9436103e863ffffffff61117d16565b60008381526002602081905260409091200155610d166001610d0a84610904565b9063ffffffff61100d16565b600083815260026020908152604091829020600301929092558051848152600160c01b674e65676174697665029281019290925280517fb2e24cfbc75d5fb0929555ddbfbfa6cdcb0012c0efe56ceba8062989cf7835ef9281900390910190a15050565b600a8054604080516020601f60026000196101006001881615020190951694909404938401819004810282018101909252828152606093909290918301828280156107015780601f106106d657610100808354040283529160200191610701565b6001600160a01b031660009081526003602052604090206001015460ff1690565b6005546001600160a01b03163314610e1357600080fd5b610e1c82610bae565b610e2557600080fd5b610e2e83610722565b610e3757600080fd5b6001600160a01b0382166000908152600360209081526040808320600101805461ff001916905585835260029091529020600901805460ff19169055610e7d8282611196565b604080518481526020810183905281517f7d7096f40a1fe42c26368b620dcd0eee1ac687fd1de7459e6838086d37572bda929181900390910190a1505050565b336000818152602081815260408083206001600160a01b038716845290915281205490916107189185906107ca908663ffffffff61100d16565b60009081526002602052604090206001015490565b6000610718338484611022565b60009081526002602052604090206006015490565b60009081526002602052604090206008015490565b60075490565b6001600160a01b0391821660009081526020818152604080832093909416825291909152205490565b60009081526002602052604090206005015490565b6001600160a01b038216610f9a57600080fd5b6001600160a01b038316610fad57600080fd5b6001600160a01b0380841660008181526020818152604080832094871680845294825291829020859055815185815291517f8c5be1e5ebec7d5bd14f71427d1e84f3dd0314c0f7b2291e5b200ac8c7c3b9259281900390910190a3505050565b60008282111561101c57600080fd5b50900390565b828261102d82610bae565b158015611040575061103e81610bae565b155b61104957600080fd5b6001600160a01b03851661105c57600080fd5b6001600160a01b03841661106f57600080fd5b6001600160a01b038516600090815260016020526040902054611098908463ffffffff61100d16565b6001600160a01b0380871660009081526001602052604080822093909355908616815220546110cd908463ffffffff61117d16565b6001600160a01b0380861660008181526001602090815260409182902094909455805187815290519193928916927fddf252ad1be2c89b69c2b068fc378daa952ba7f163c4a11628f55a4df523b3ef92918290030190a35050505050565b6effffffffffffffffffffffffffffff4363ffffffff1660a01b8217657dee20b84b880290811660781b187fffcc00000000000000000000000000000000000000000000000000000000000017919050565b60008282018381101561118f57600080fd5b9392505050565b6007546006546111ac908363ffffffff61117d16565b11156111b757600080fd5b6001600160a01b0382166111ca57600080fd5b6006546111dd908263ffffffff61117d16565b6006556001600160a01b038216600090815260016020526040902054611209908263ffffffff61117d16565b6001600160a01b03831660008181526001602090815260408083209490945583518581529351929391927fddf252ad1be2c89b69c2b068fc378daa952ba7f163c4a11628f55a4df523b3ef9281900390910190a35050565b6000826112705750600061071c565b8282028284828161127d57fe5b041461118f57600080fdfea165627a7a72305820acf055b54ee54326b03200fe4cd8b70321b7c586ab71d9bb148175c2029520590029",
  "source": "pragma solidity ^0.5.8;\n\nimport \"./SafeMath.sol\";\n\ncontract ERC20d {\n\n    // Author ::: Samuel JJ Gosling\n    // Usage ::: Governance\n    // Entity ::: Validity\n\n    using SafeMath for uint;\n\n    bytes32 constant POS = 0x506f736974697665000000000000000000000000000000000000000000000000;\n    bytes32 constant NEU = 0x4e65757472616c00000000000000000000000000000000000000000000000000;\n    bytes32 constant NEG = 0x4e65676174697665000000000000000000000000000000000000000000000000;\n\n    struct userObject {\n        bytes32 _validationIdentifier;\n        bool _validationStatus;\n        bool _stakingStatus;\n    }\n\n    struct delegateObject {\n        address _delegateAddress;\n        bytes32 _delegateIdentity;\n        bytes32 _viabilityLimit;\n        bytes32 _viabilityRank;\n        bytes32 _positiveVotes;\n        bytes32 _negativeVotes;\n        bytes32 _neutralVotes;\n        bytes32 _totalEvents;\n        bytes32 _totalVotes;\n        bool _votingStatus;\n    }\n\n    mapping (address => mapping (address => uint)) private _allowed;\n    mapping (address => uint) private _balances;\n\n    mapping (bytes32 => delegateObject) private validationData;\n    mapping (address => userObject) private validationUser;\n\n    address private _founder = msg.sender;\n    address private _admin = address(0x0);\n\n    uint private _totalSupply;\n    uint private _maxSupply;\n    uint private _decimals;\n\n    string private _name;\n    string private _symbol;\n\n    modifier _viabilityLimit(bytes32 _id) {\n        require(uint(validationData[_id]._viabilityLimit) <= block.number);\n        _;\n    }\n\n    modifier _stakeCheck(address _from, address _to) {\n        require(!isStaking(_from) && !isStaking(_to));\n        _;\n    }\n\n    modifier _onlyAdmin() {\n        require(msg.sender == _admin);\n        _;\n    }\n\n    modifier _onlyFounder() {\n        require(msg.sender == _founder);\n        _;\n    }\n\n    constructor() public {\n        //  Max supply (100%) ::: 50,600,000,000 VLDY\n        //  Genesis supply (92.5%) ::: 46,805,000,000 VLDY\n        //  Validation supply (7.5%) ::: 3,795,000,000 VLDY\n        uint genesis = uint(46805000000).mul(10**uint(18));\n        _maxSupply = uint(50600000000).mul(10**uint(18));\n        _mint(_founder, genesis);\n        _name = \"Validity\";\n        _symbol = \"VLDY\";\n        _decimals = 18;\n    }\n\n    function toggleStake() public {\n        require(!isVoted(validityId(msg.sender)));\n        require(isActive(msg.sender));\n\n        bool currentState = validationUser[msg.sender]._stakingStatus;\n        validationUser[msg.sender]._stakingStatus = !currentState;\n        emit Stake(msg.sender);\n    }\n\n    function setIdentity(bytes32 _identity) public {\n        require(isActive(msg.sender));\n\n        validationData[validityId(msg.sender)]._delegateIdentity = _identity;\n    }\n\n    function name() public view returns (string memory) {\n        return _name;\n    }\n\n    function symbol() public view returns (string memory) {\n        return _symbol;\n    }\n\n    function decimals() public view returns (uint) {\n        return _decimals;\n    }\n\n    function maxSupply() public view returns (uint) {\n        return _maxSupply;\n    }\n\n    function totalSupply() public view returns (uint) {\n        return _totalSupply;\n    }\n\n    function isVoted(bytes32 _id) public view returns (bool) {\n        return validationData[_id]._votingStatus;\n    }\n\n    function isActive(address _account) public view returns (bool) {\n        return validationUser[_account]._validationStatus;\n    }\n\n    function isStaking(address _account) public view returns (bool) {\n        return validationUser[_account]._stakingStatus;\n    }\n\n    function balanceOf(address _owner) public view returns (uint) {\n        return _balances[_owner];\n    }\n\n    function validityId(address _account) public view returns (bytes32) {\n        return validationUser[_account]._validationIdentifier;\n    }\n\n    function getIdentity(bytes32 _id) public view returns (bytes32) {\n        return validationData[_id]._delegateIdentity;\n    }\n\n    function getAddress(bytes32 _id) public view returns (address) {\n        return validationData[_id]._delegateAddress;\n    }\n\n    function viability(bytes32 _id) public view returns (uint) {\n        return uint(validationData[_id]._viabilityRank);\n    }\n\n    function totalEvents(bytes32 _id) public view returns (uint) {\n        return uint(validationData[_id]._totalEvents);\n    }\n\n    function totalVotes(bytes32 _id) public view returns (uint) {\n        return uint(validationData[_id]._totalVotes);\n    }\n\n    function positiveVotes(bytes32 _id) public view returns (uint) {\n        return uint(validationData[_id]._positiveVotes);\n    }\n\n    function negativeVotes(bytes32 _id) public view returns (uint) {\n        return uint(validationData[_id]._negativeVotes);\n    }\n\n    function neutralVotes(bytes32 _id) public view returns (uint) {\n        return uint(validationData[_id]._neutralVotes);\n    }\n\n    function allowance(address _owner, address _spender) public view returns (uint) {\n        return _allowed[_owner][_spender];\n    }\n\n    function transfer(address _to, uint _value) public returns (bool) {\n        _transfer(msg.sender, _to, _value);\n        return true;\n    }\n\n    function approve(address _spender, uint _value) public returns (bool) {\n        _approve(msg.sender, _spender, _value);\n        return true;\n    }\n\n    function transferFrom(address _from, address _to, uint _value) public returns (bool) {\n        _approve(_from, msg.sender, _allowed[_from][msg.sender].sub(_value));\n        _transfer(_from, _to, _value);\n        return true;\n    }\n\n    function increaseAllowance(address _spender, uint _addedValue) public returns (bool) {\n        _approve(msg.sender, _spender, _allowed[msg.sender][_spender].add(_addedValue));\n        return true;\n    }\n\n    function decreaseAllowance(address _spender, uint _subtractedValue) public returns (bool) {\n        _approve(msg.sender, _spender, _allowed[msg.sender][_spender].sub(_subtractedValue));\n        return true;\n    }\n\n    function _transfer(address _from, address _to, uint _value) internal _stakeCheck(_from, _to) {\n        require(_from != address(0x0));\n        require(_to != address(0x0));\n\n        _balances[_from] = _balances[_from].sub(_value);\n        _balances[_to] = _balances[_to].add(_value);\n        emit Transfer(_from, _to, _value);\n    }\n\n    function _approve(address _owner, address _spender, uint _value) internal {\n        require(_spender != address(0x0));\n        require(_owner != address(0x0));\n\n        _allowed[_owner][_spender] = _value;\n        emit Approval(_owner, _spender, _value);\n    }\n\n    function _mint(address _account, uint _value) private {\n        require(_totalSupply.add(_value) <= _maxSupply);\n        require(_account != address(0x0));\n\n        _totalSupply = _totalSupply.add(_value);\n        _balances[_account] = _balances[_account].add(_value);\n        emit Transfer(address(0x0), _account, _value);\n    }\n\n    function validationReward(bytes32 _id, address _account, uint _reward) public _onlyAdmin {\n        require(isStaking(_account));\n        require(isVoted(_id));\n\n        validationUser[_account]._stakingStatus = false;\n        validationData[_id]._votingStatus = false;\n        _mint(_account, _reward);\n        emit Reward(_id, _reward);\n    }\n\n    function validationEvent(bytes32 _id, bytes32 _subject, bytes32 _choice, uint _weight) public _onlyAdmin {\n        require(_choice == POS || _choice == NEU || _choice == NEG);\n        require(isStaking(getAddress(_id)));\n        require(!isVoted(_id));\n\n        validationData[_id]._votingStatus = true;\n        delegateObject storage x = validationData[_id];\n        if(_choice == POS) {\n            x._positiveVotes = bytes32(positiveVotes(_id).add(_weight));\n        } else if(_choice == NEU) {\n            x._neutralVotes = bytes32(neutralVotes(_id).add(_weight));\n        } else if(_choice == NEG) {\n            x._negativeVotes = bytes32(negativeVotes(_id).add(_weight));\n        }\n        x._totalVotes = bytes32(totalVotes(_id).add(_weight));\n        x._totalEvents = bytes32(totalEvents(_id).add(1));\n        emit Vote(_id, _subject, _choice, _weight);\n    }\n\n    function validationGeneration(address _account) internal view returns (bytes32) {\n        bytes32 id = 0xffcc000000000000000000000000000000000000000000000000000000000000;\n        assembly {\n            let product := mul(or(_account, shl(0xa0, and(number, 0xffffffff))), 0x7dee20b84b88)\n            id := or(id, xor(product, shl(0x78, and(product, 0xffffffffffffffffffffffffffffff))))\n        }\n        return id;\n    }\n\n    function increaseViability(bytes32 _id) public _onlyAdmin  _viabilityLimit(_id) {\n        validationData[_id]._viabilityLimit = bytes32(block.number.add(1000));\n        validationData[_id]._viabilityRank = bytes32(viability(_id).add(1));\n        emit Trust(_id, POS);\n    }\n\n    function decreaseViability(bytes32 _id) public _onlyAdmin _viabilityLimit(_id) {\n        validationData[_id]._viabilityLimit = bytes32(block.number.add(1000));\n        validationData[_id]._viabilityRank = bytes32(viability(_id).sub(1));\n        emit Trust(_id, NEG);\n    }\n\n    function conformIdentity() public {\n        require(!isActive(msg.sender));\n\n        bytes32 neophyteDelegate = validationGeneration(msg.sender);\n        validationUser[msg.sender]._validationIdentifier = neophyteDelegate;\n        validationData[neophyteDelegate]._delegateAddress = msg.sender;\n        validationUser[msg.sender]._validationStatus = true;\n        emit Neo(msg.sender, neophyteDelegate, block.number);\n    }\n\n    function adminControl(address _entity) public _onlyFounder {\n        _admin = _entity;\n    }\n\n    event Approval(address indexed owner, address indexed spender, uint value);\n    event Transfer(address indexed from, address indexed to, uint value);\n    event Vote(bytes32 id, bytes32 subject, bytes32 choice, uint weight);\n    event Neo(address indexed delegate, bytes32 id, uint block);\n    event Trust(bytes32 id, bytes32 change);\n    event Reward(bytes32 id, uint reward);\n    event Stake(address indexed delegate);\n\n}\n",
  "sourcePath": "/Users/OSX/Desktop/Validity/validity-hybrid-tipbot/contracts/ERC20d.sol",
  "compiler": {
    "name": "solc",
    "version": "0.5.8+commit.23d335f2.Emscripten.clang"
  },
  "schemaVersion": "3.0.11",
  "updatedAt": "2019-07-31T13:54:53.104Z",
  "devdoc": {
    "methods": {}
  },
  "userdoc": {
    "methods": {}
  }
}