{
  "contractName": "MultiSend",
  "abi": [
    {
      "constant": true,
      "inputs": [],
      "name": "ERC20",
      "outputs": [
        {
          "name": "",
          "type": "address"
        }
      ],
      "payable": false,
      "stateMutability": "view",
      "type": "function"
    },
    {
      "constant": true,
      "inputs": [],
      "name": "admin",
      "outputs": [
        {
          "name": "",
          "type": "address"
        }
      ],
      "payable": false,
      "stateMutability": "view",
      "type": "function"
    },
    {
      "constant": false,
      "inputs": [
        {
          "name": "_subject",
          "type": "address"
        }
      ],
      "name": "changeOwnership",
      "outputs": [],
      "payable": false,
      "stateMutability": "nonpayable",
      "type": "function"
    },
    {
      "constant": false,
      "inputs": [
        {
          "name": "_source",
          "type": "address"
        },
        {
          "name": "_recievers",
          "type": "address[]"
        },
        {
          "name": "_amount",
          "type": "uint256"
        }
      ],
      "name": "multiTransfer",
      "outputs": [],
      "payable": true,
      "stateMutability": "payable",
      "type": "function"
    },
    {
      "constant": false,
      "inputs": [
        {
          "name": "_source",
          "type": "address"
        },
        {
          "name": "_recipent",
          "type": "address"
        },
        {
          "name": "_amount",
          "type": "uint256"
        }
      ],
      "name": "tipTransfer",
      "outputs": [],
      "payable": true,
      "stateMutability": "payable",
      "type": "function"
    },
    {
      "constant": false,
      "inputs": [
        {
          "name": "_source",
          "type": "address"
        },
        {
          "name": "_recievers",
          "type": "address[]"
        },
        {
          "name": "_amount",
          "type": "uint256"
        }
      ],
      "name": "batchTransfer",
      "outputs": [],
      "payable": false,
      "stateMutability": "nonpayable",
      "type": "function"
    }
  ],
  "bytecode": "0x6080604052600080546001600160a01b0319163317905534801561002257600080fd5b506105fd806100326000396000f3fe6080604052600436106100555760003560e01c80630aa20e731461005a5780632af4c31e146101115780635215ad0b1461014457806352f70ec014610206578063cc4aa2041461023c578063f851a4401461026d575b600080fd5b61010f6004803603606081101561007057600080fd5b6001600160a01b03823516919081019060408101602082013564010000000081111561009b57600080fd5b8201836020820111156100ad57600080fd5b803590602001918460208302840111640100000000831117156100cf57600080fd5b9190808060200260200160405190810160405280939291908181526020018383602002808284376000920191909152509295505091359250610282915050565b005b34801561011d57600080fd5b5061010f6004803603602081101561013457600080fd5b50356001600160a01b03166102dc565b34801561015057600080fd5b5061010f6004803603606081101561016757600080fd5b6001600160a01b03823516919081019060408101602082013564010000000081111561019257600080fd5b8201836020820111156101a457600080fd5b803590602001918460208302840111640100000000831117156101c657600080fd5b9190808060200260200160405190810160405280939291908181526020018383602002808284376000920191909152509295505091359250610315915050565b61010f6004803603606081101561021c57600080fd5b506001600160a01b03813581169160208101359091169060400135610487565b34801561024857600080fd5b506102516105b3565b604080516001600160a01b039092168252519081900360200190f35b34801561027957600080fd5b506102516105c2565b601982511061029057600080fd5b61029b838383610315565b600080546040516001600160a01b0390911691303180156108fc02929091818181858888f193505050501580156102d6573d6000803e3d6000fd5b50505050565b6000546001600160a01b031633146102f357600080fd5b600080546001600160a01b0319166001600160a01b0392909216919091179055565b6001600160a01b0383161561041b57600180546001600160a01b0319166001600160a01b03851617905560005b82518110156104155760015483516001600160a01b03909116906323b872dd90339086908590811061037057fe5b6020026020010151856040518463ffffffff1660e01b815260040180846001600160a01b03166001600160a01b03168152602001836001600160a01b03166001600160a01b031681526020018281526020019350505050602060405180830381600087803b1580156103e157600080fd5b505af11580156103f5573d6000803e3d6000fd5b505050506040513d602081101561040b57600080fd5b5050600101610342565b50610482565b60005b82518110156102d657600083828151811061043557fe5b60200260200101519050806001600160a01b03166108fc849081150290604051600060405180830381858888f19350505050158015610478573d6000803e3d6000fd5b505060010161041e565b505050565b6001600160a01b0383161561053e57600180546001600160a01b0319166001600160a01b03858116919091179182905560408051600160e01b6323b872dd028152336004820152858316602482015260448101859052905192909116916323b872dd916064808201926020929091908290030181600087803b15801561050c57600080fd5b505af1158015610520573d6000803e3d6000fd5b505050506040513d602081101561053657600080fd5b5061029b9050565b60405182906001600160a01b0382169083156108fc029084906000818181858888f19350505050158015610576573d6000803e3d6000fd5b5050600080546040516001600160a01b0390911691303180156108fc02929091818181858888f193505050501580156102d6573d6000803e3d6000fd5b6001546001600160a01b031681565b6000546001600160a01b03168156fea165627a7a723058208cc106c853005fb107d5dc24962dfdcc7895418461a23359d4b923603e90e7ac0029",
  "source": "pragma solidity 0.5.8;\n\ninterface IERC20 {\n    function transferFrom(address _from, address _to, uint256 _amount) external returns (bool);\n    function transfer(address _to, uint _amount) external returns (bool);\n}\n\ncontract MultiSend {\n\n    address payable public admin = msg.sender;\n    IERC20 public ERC20;\n\n    function changeOwnership(address _subject) public {\n        require(msg.sender == admin);\n\n        admin = address(uint160(_subject));\n    }\n\n    function multiTransfer(address _source, address[] memory _recievers, uint _amount) payable public {\n        require(_recievers.length < 25);\n\n        batchTransfer(_source, _recievers, _amount);\n        admin.transfer(address(this).balance);\n    }\n\n    function tipTransfer(address _source, address _recipent, uint _amount) payable public {\n      if(_source != address(0x0)){\n        ERC20 = IERC20(_source);\n        ERC20.transferFrom(msg.sender, _recipent, _amount);\n      } else {\n        address payable payee = address(uint160(_recipent));\n        payee.transfer(_amount);\n      } admin.transfer(address(this).balance);\n    }\n\n    function batchTransfer(address _source, address[] memory _recievers, uint _amount) public {\n      if(_source != address(0x0)){\n        ERC20 = IERC20(_source);\n        for(uint x = 0; x < _recievers.length; x++){\n          ERC20.transferFrom(msg.sender, _recievers[x], _amount);\n        }\n      } else {\n        for(uint y = 0; y < _recievers.length; y++){\n          address payable payee = address(uint160(_recievers[y]));\n          payee.transfer(_amount);\n        }\n      }\n    }\n\n}\n",
  "sourcePath": "/Users/OSX/Desktop/Validity/validity-hybrid-tipbot/contracts/MultiSend.sol",
  "compiler": {
    "name": "solc",
    "version": "0.5.8+commit.23d335f2.Emscripten.clang"
  },
  "schemaVersion": "3.0.11",
  "updatedAt": "2019-07-31T13:51:19.777Z",
  "devdoc": {
    "methods": {}
  },
  "userdoc": {
    "methods": {}
  }
}